:061E0600312E322E3000E7
:031D1A0001A40021
:0618E8008B318A328933C6
:1018EE00E478BCF6EF24FE6017146016146016241C
:1018FE0014602B24F2605514603424FE705D800257
:10190E008000E4802478BC7606E6FF7E00A833AC27
:10191E0032AD317BFF7A1E7906120AEB803DAB3178
:10192E00AA32A9337401120B5778BCF6802DAB3155
:10193E00AA32A9337440120B57AB31AA32A9339095
:10194E000001E4120B6978BC7602800FAB31AA322B
:0F195E00A9337404120B5778BC760178BCE6FFEE
:01196D002257
:101C6B00900001120B2AFE120B11FDEE78BCF6ED63
:101C7B0008F678BC08E616187001161486064E7026
:0D1C8B00F1AB34AA35A936E4120B577F01E6
:011C98002229
:101CC500120B1114600304700B900001120B2A1300
:101CD5009202800AAB34AA35A93674FF8007AB346B
:0B1CE500AA35A936E4120B577F01223C
:101C3B00120B11FF78BC700476018002A60778BCEA
:101C4B00E6147009789D7601121D338004E478BC8C
:0F1C5B00F678BCE6AB34AA35A936120B577F01D9
:011C6A002257
:0A1DE500E4789DF6120B577F0122EF
:100003008B318A328933121A5DAB31AA32A933900C
:0D0013000001E4120B69E4120B577F02227A
:1017C400120B1178BCF6900001120B2A78BDF6902A
:1017D4000003120B2AFE900002120B2AFDEE78BEC3
:1017E400F6ED08F6900004120B2A7008900005121A
:1017F4000B2A600978BEE64480F608E6F678BDE672
:10180400FF30E00B18E630E004D2978002C297EF75
:1018140030E10C78BCE630E104D2958002C29578C0
:10182400BDE630E70E18E630E104C2948005121AD2
:101834005DD294A295E43325E0FFA297E4334F7878
:10184400BCF6209404E64480F678BCE6AB34AA35B2
:07185400A936120B577F01BA
:01185B00226A
:101D4C00120B11789AF6E4F67889F6AB34AA35A919
:071D5C0036120B577F012234
:061C06008B318A328933A4
:101C0C000533E5337002053214F9120B1178BCF66A
:101C1C00E6700276FF78BCE6FFAB31AA32A933122C
:0E1C2C001B03AB34AA35A936E4120B577F0117
:011C3A002287
:101CF000120B1178BCF6E6FF54030478A2F6EF54F9
:101D00000460047F0180027F007894A607AB34AAA8
:091D100035A936E4120B577F01DE
:011D190022A7
:0614FC008B318A328933B6
:10150200AB340536E536AA357002053514F9E41216
:101512000B5778BE7601AB310533E533AA32700240
:10152200053214F9120B1118F678BDE61670030293
:1015320015BAAB310533E533AA327002053214F91C
:10154200120B1118F6E6FF543F78BFF67002764090
:10155200EF5480603478BFE6FFAB34AA35A9361267
:10156200000078BFE62407FFE433FEEF7803CEC322
:1015720013CE13D8F978BFF6E6FF2536F536E435F3
:1015820035F53518EF26F680A078BFE6FFAB31AA15
:1015920032A933121B0378BFE62407FFE433FEEFC0
:1015A2007803CEC313CE13D8F978BFF62533F533BB
:0C15B200E43532F53202152B78BEE6FF5E
:0115BE00220A
:101B9100120B11788AF6900002120B2AFE900001B6
:101BA100120B2AFDEE78A0F6ED08F6900004120B58
:101BB1002AFE900003120B2AFDEE789BF6ED08F643
:0D1BC100AB34AA35A936E4120B577F012280
:060046008B378A3889396E
:10004C008B3D8A3E893FE47888F678A3F6853A4062
:10005C00853B41853C427402253CF53CE4353BF53F
:10006C003BE408F678BDF608F6042539F539E43595
:10007C0038F538AB370539E539AA3870020538142C
:10008C00F9120B117895F67895E670030204CCAB57
:10009C00370539E539AA387002053814F9120B11F5
:1000AC00788BF6E6FF5402700302039378BDE6707A
:1000BC000302017F78A0E6FC08E6FD789EA6040802
:1000CC00A605EF541164017026788BE6FF7D8C1227
:1000DC000EF978A3EFF66402703A789E08E61618CB
:1000EC0086067001164E602C78A4E660DC80257DB7
:1000FC008C7F0E120EF978A3EFF6BF0213789E08D0
:10010C00E6161886067001164E600578A4E660DFC8
:10011C00E478BDF678A3E6640160030204CC788C25
:10012C00E6FFAB3A053CE53CAA3B7002053B14F9F3
:10013C00EF120B5708E6FFAB3A053CE53CAA3B70C7
:10014C0002053B14F9EF120B5708E6FFAB3A053CDE
:10015C00E53CAA3B7002053B14F9EF120B5708E67D
:10016C00FFAB3A053CE53CAA3B7002053B14F9EFAA
:10017C00120B57788BE6FF541070030202B9AB37A1
:10018C00AA38A939120B117890F6900001120B2A9B
:10019C007891F6900002120B2A7892F690000312D6
:1001AC000B2A7893F674042539F539E43538F5388B
:1001BC00789BE6FC08E6FD18A60408A605EF54019A
:1001CC00603B78A0E6FE08E6FF789EA60608A60728
:1001DC00788BE6FFE4FD120EF978A3EFF6BF02135D
:1001EC00789E08E6161886067001164E600578A4EF
:1001FC00E660DD78A3E6640160030204CC78A0E637
:10020C00FE08E6FF789EA60608A607788BE6FF7D1B
:10021C008C120EF978A3EFF6BF0213789E08E6163F
:10022C001886067001164E600578A4E660DD78A38A
:10023C00E66401703C798CE7789656789066701E6F
:10024C0009E7789756789166701409E7789856788C
:10025C009266700A09E77899567893666013789BD2
:10026C0008E6161886067001164E600578A4E6603E
:10027C008C798CE7789656789066701E09E778979B
:10028C0056789166701409E7789856789266700AD9
:10029C0009E7789956789366600678A3E64410F6D9
:1002AC0078A3E66401700302038C0204CC78A0E608
:1002BC00FE08E6FF789EA60608A607788BE6540192
:1002CC00603C78BDE6600302038C788BE6FFE4FDAE
:1002DC00120EF978A3EFF6BF0213789E08E61618F3
:1002EC0086067001164E600578A4E660DD78A3E6FC
:1002FC00640160030204CC78BD760102038C788B18
:10030C00E6FF7D8C120EF978A3EFF6BF0213789EF0
:10031C0008E6161886067001164E600578A4E6608D
:10032C00DD78A3E6640160030204CC788CE6FFABB5
:10033C003A053CE53CAA3B7002053B14F9EF120B65
:10034C005708E6FFAB3A053CE53CAA3B7002053B7F
:10035C0014F9EF120B5708E6FFAB3A053CE53CAA43
:10036C003B7002053B14F9EF120B5708E6FFAB3A52
:10037C00053CE53CAA3B7002053B14F9EF120B5708
:10038C00E478BEF60204BE78BDE6700302042D7854
:10039C00A0E6FE08E6FF789EA60608A6077D8C7FE1
:1003AC000E120EF978A3EFF6BF0213789E08E6162C
:1003BC001886067001164E600578A4E660DF78A3F7
:1003CC00E6640160030204CC788CE6FFAB3A053C92
:1003DC00E53CAA3B7002053B14F9EF120B5708E6FB
:1003EC00FFAB3A053CE53CAA3B7002053B14F9EF28
:1003FC00120B5708E6FFAB3A053CE53CAA3B7002F2
:10040C00053B14F9EF120B5708E6FFAB3A053CE538
:10041C003CAA3B7002053B14F9EF120B57E478BD74
:10042C00F6AB37AA38A939120B11788CF69000016B
:10043C00120B2A788DF6900002120B2A788EF69009
:10044C000003120B2A788FF674042539F539E4353C
:10045C0038F538788BE65420601D08E67896F678E7
:10046C008DE67897F6788EE67898F6788FE6789918
:10047C00F678A37601803B78A0E6FE08E6FF789E2E
:10048C00A60608A607788BE6FF7D8C120EF978A3DA
:10049C00EFF6BF0213789E08E61618860670011652
:1004AC004E600578A4E660DD78A3E6B4011278BE50
:1004BC00760178880678A4E6700678951602009383
:1004CC007895E66031AB370539E539AA3870020505
:1004DC003814F9120B11788BF6E6FF54026007EF13
:1004EC005410600D800074042539F539E43538F565
:1004FC003878951680CA78A3E6640160030205D8A3
:10050C0078BDE670030205A478A0E6FE08E6FF7845
:10051C009EA60608A6077D8C7F0E120EF978A3EF17
:10052C00F6BF0213789E08E6161886067001164E62
:10053C00600578A4E660DF78A3E664016003020539
:10054C00D8788CE6FFAB3A053CE53CAA3B7002053B
:10055C003B14F9EF120B5708E6FFAB3A053CE53CB0
:10056C00AA3B7002053B14F9EF120B5708E6FFABE0
:10057C003A053CE53CAA3B7002053B14F9EF120B23
:10058C005708E6FFAB3A053CE53CAA3B7002053B3D
:10059C0014F9EF120B57803478BEE6602F78A0E682
:1005AC00FE08E6FF789EA60608A607E4FD7F0E125D
:1005BC000EF978A3EFF6BF0213789E08E61618869C
:1005CC00067001164E600578A4E660DF7888E6AB0D
:1005DC0040AA41A942120B5778A3E6AB40AA41A905
:0C05EC0042900001120B69C3E53C99FF2E
:0105F80022E0
:101D7A00E478BCF685343A85353B85363C12004614
:041D8A0078BCEFF63C
:011D8E002232
:060CD4008B378A388939D4
:100CDA00E47888F678A3F6853A3D853B3E853C3F25
:100CEA007403253CF53CE4353BF53BE408F6042562
:100CFA0039F539E43538F538AB37FAA939900001B6
:100D0A00120B2A120B11FF7895F674022539F53960
:100D1A00E43538F538EF7003020ED1AB370539E503
:100D2A0039AA387002053814F9120B11788BF6E6D5
:100D3A00FF54027003020E2DEF5401603B78A0E6C7
:100D4A00FE08E6FF789EA60608A607788BE6FFE46B
:100D5A00FD120EF978A3EFF6BF0213789E08E61685
:100D6A001886067001164E600578A4E660DD78A341
:100D7A00E664016003020ED17895E6167003020E4E
:100D8A00D1E67009788BE654016002760E78A0E607
:100D9A00FE08E6FF789EA60608A607788BE6FF7D82
:100DAA008C120EF978A3EFF6BF0213789E08E616A6
:100DBA001886067001164E600578A4E660DD78A3F1
:100DCA00E664016003020ED1788CE6FFAB3A053C7B
:100DDA00E53CAA3B7002053B14F9EF120B5708E6F3
:100DEA00FFAB3A053CE53CAA3B7002053B14F9EF20
:100DFA00120B5708E6FFAB3A053CE53CAA3B7002EA
:100E0A00053B14F9EF120B5708E6FFAB3A053CE530
:100E1A003CAA3B7002053B14F9EF120B577888067F
:100E2A00020D827895E616606FAB37AA38A9391297
:100E3A000B11788CF6900001120B2A788DF690002F
:100E4A0002120B2A788EF6900003120B2A788FF67C
:100E5A0074042539F539E43538F53878A0E6FE0802
:100E6A00E6FF789EA60608A607788BE6FF7D8C1219
:100E7A000EF978A3EFF6BF0213789E08E6161886D5
:100E8A00067001164E600578A4E660DD78A3E66474
:100E9A00017034788806808B78A0E6FE08E6FF7831
:100EAA009EA60608A607E4FD7F0E120EF978A3EFA8
:100EBA00F6BF0213789E08E6161886067001164ECB
:100ECA00600578A4E660DF7888E6AB3DAA3EA93FD4
:100EDA00120B57AB3DAA3EA93F900001E4120B69E1
:0E0EEA0078A3E6900002120B69C3E53C99FF65
:010EF80022D7
:06196E008B318A3289333F
:10197400789DE614701885343A85353B85363CAB42
:1019840031AA32A933120CD478BCA6078021AB3417
:10199400AA35A936E4120B57AB34AA35A936900000
:1019A40001120B69900002E4120B6978BC7603AB58
:1019B40031AA32A933900003120B2A54026006782C
:1019C400BCE6F68025900002120B2A900001120B4F
:1019D4002A75F004A42404FFE435F0FEEF7810C364
:0E19E40033CE33CED8F978BC46F678BCE6FF99
:0119F20022D2
:101BCE00900001120B2A788CF6900002120B2A78E4
:101BDE008DF6900003120B2A788EF6900004120BED
:101BEE002A788FF67D8CE4FF120EF9AB3AAA3BA948
:081BFE003CE4120B577F0122A9
:101C9900789DE614701285343A85353B85363C12B9
:101CA9001BCE78BCA607800FAB34AA35A93674FFC2
:0B1CB900120B5778BC760178BCE6FFE8
:011CC40022FD
:0C130F0078AEE6FF78A86670030214FBBD
:10131B007E0074002FF9EE3401752B01F52C892D0D
:10132B0078A7E62400F9EE3402752E01F52F8930EB
:10133B0078AE744026F6AB2BAA2CA92D120B11FFFD
:10134B00AB2E0530E530AA2F7002052F14F9EF12E2
:10135B000B57AB2B052DE52DAA2C7002052C14F980
:10136B00120B11120CA813CC0013F501140A021462
:10137B001F0314B00413A20513B70614C408142BCF
:10138B000914400A144C10146011147412148813AD
:10139B00149C1D000014DC852E34852F35853036CA
:1013AB00AB2BAA2CA92D121D7A0214D6852E3485AF
:1013BB002F35853036AB2BAA2CA92D12196E0214A2
:1013CB00D6AB2BAA2CA92D120B11FFAB2EE530247B
:1013DB0001F9E4352FFA1218E878BBEFF6AB2EAA19
:1013EB002FA930120B57060214EE852E34852F359C
:1013FB00853036AB2BAA2CA92D121CC50214D68511
:10140B002E34852F35853036AB2BAA2CA92D121CEB
:10141B003B0214D6AB2EAA2FA930121DE50214D60F
:10142B00852E34852F35853036AB2BAA2CA92D1262
:10143B001C6B0214D6AB2EAA2FA930120003021478
:10144B00D6852E34852F35853036AB2BAA2CA92D7E
:10145B001217C48076852E34852F35853036AB2B0D
:10146B00AA2CA92D121D4C8062852E34852F358513
:10147B003036AB2BAA2CA92D121C06804E852E3490
:10148B00852F35853036AB2BAA2CA92D121CF0805D
:10149B003A852E34852F35853036AB2BAA2CA92DCA
:1014AB001214FC8026852E34852F35853036AB2BD8
:1014BB00AA2CA92D121B918012852E34852F3585D0
:1014CB003036AB2BAA2CA92D121C9978BBA6078002
:1014DB0012AB2EAA2FA93090FFFF74FF120B697865
:1014EB00BB760178BBE60479AAF778A7744026F699
:0114FB0022CE
:101DA30075A15575A1AAE5B954F84406F5B975A10D
:021DB300FF220D
:10002600EF4E601505A105A105A105A105A105A134
:0A00360005A1EF1F70EA1E80E7220B
:101D6300AD07AC06ED4C600E7FE87E03120026ED56
:071D73001D70F11C80EE223F
:101107000600FF0901A101150026FF00750895409B
:101117000901810295400901910295400901B10237
:10112700C01201000200000040280D040200010166
:1011370002030109026B0003010080320904000069
:101147000203000004092110000001222100070505
:10115700020340000107058303400001080B020258
:101167000202010309040200010202010005240032
:1011770010010524010000042402020524060001D1
:101187000705820310004009040300020A0000005B
:101197000705010240000007058102400000040323
:1011A700090424036C0063006B00660062002E00D4
:1011B70063006F006D002D00760031002E003100B6
:1011C7002E003000480024034400410050004C002A
:1011D70069006E006B00200043004D00530049007A
:1011E70053002D0044004100500008034100520005
:1011F7004D001E034400410050004C0069006E0082
:101207006B002D0043004400430045007800740044
:101217001A0343004D005300490053002D004400BA
:101227004100500020007600310011A511F111CDC9
:1012370011A9121711F9050F280002071002000063
:1012470000001C100500DF60DDD88945C74C9CD223
:10125700659D9E648A9F00000306AA0020000A007D
:10126700000000000306AA00080002000000A0001A
:101277001400030057494E55534200000000000078
:10128700000000008400040007002A0044006500F5
:10129700760069006300650049006E007400650010
:1012A7007200660061006300650047005500490051
:1012B70044007300000050007B00430044004200DC
:1012C700330042003500410044002D003200390050
:1012D700330042002D0034003600360033002D0065
:1012E70041004100330036002D003100410041002C
:1012F700450034003600340036003300370037002D
:0813070036007D00000000002B
:101D1D0001BA0002AF000007B300A25D4F0000083A
:051D2D00031500380061
:101AB100C2EAE4F5E275D18053D1FB53E2BF75ED83
:101AC1000075EC0053EAF375DC0275EF0075EE402A
:101AD10043EAC053EAEF75D21275E50175E400756A
:101AE100E70275E60043EB4853EBEE75D41275D669
:101AF1001AF5E343E22943D10175D8FF75E107D215
:021B0100EA22D6
:030043000205F9BA
:0D05F900C0E0C0F0C083C082C0D075D00843
:1006060020D9030209E8E5D9543F70030209A91469
:10061600604D24E1700302094D14603324FE601D11
:1006260024F36049242E60030209E620DE03020952
:10063600E678A8744026F6E6F5E40209E678BA7686
:100646000075D700E5D654FC4402F5D60209E675D6
:10065600D300C201E5D254FC4402F5D20209E620D9
:10066600DE030209E6AFDB121B4C0209E685DB213D
:10067600E52164086003020926900006E078B1F6D9
:10068600A3E0600276FF752100900001E078B2F6E3
:10069600900000E0546024E0700302086E24E070CD
:1006A600030208B8244060030208DE78B2E6B40B01
:1006B60000400302086C9006C3F82828730208510C
:1006C60002079502086C0207D002086C020769024D
:1006D60006E402086C02077302078B0208E1900029
:1006E60003E024FE601E14602A24F4605524ED60A5
:1006F600602421706B7512FF75131175142875210E
:10070600120208E17512FF75131175143A75216B03
:100716000208E1900002E0FFC394065043EF25E093
:100726002431F582E43412F583E493FE740193AA2E
:100736000EF97BFF8B128A13F514120B11F52102A9
:1007460008E17512FF75131275143D75212802080C
:10075600E17512FF7513117514077521210208E161
:100766000208DE900002E078B1F60208E178A5E61C
:10077600900000F078B1E6C3940150030208E175D9
:1007860021010208E1900002E078A5F60208E19056
:100796000000E0541F6402702E900004E024FE6006
:1007A6001D2481600E14701CE5D454BC4402F5D49B
:1007B6000208E1E5D254BC4402F5D20208E153D462
:1007C600730208E10208DE0208DE900000E0541F12
:1007D600FD7020900003E0FE900002E0FBEB640158
:1007E6004E700D9011419330E5030208E10208DED8
:1007F6000208DEED64027050900003E0FE900002F5
:10080600E0FDED4E703F900005E0FE900004E0FD37
:10081600EDFFEE702DEF24FE601224816019147036
:1008260021E5D454BF4403F5D40208E1E5D4547F4E
:10083600440CF5D40208E1E5D254BF4403F5D202D4
:1008460008E10208DE0208DE0208DE7512007513F2
:10085600007514AF78B1E6FFC39402400575210216
:1008660080798F2180758070900000E0541F6401AC
:10087600706978B2E624FE606214605F24FA24FD93
:10088600505924EC605514601914604F24217020CF
:1008960078B1E6FFC394404005752140803D8F2125
:1008A60080397512007513007514B3752107802BF6
:1008B6008026900000E0541F702178B2E624E07094
:1008C60015900004E0B407137512FF751312751422
:1008D600657521AA800580007521FFE5216044F435
:1008E600604178B1E6D395214002A62178B1E6FFB2
:1008F600C3944040047F4080008F217E0078007CB6
:10090600007D01AB12AA13A914120AEBC378B1E653
:100916009521F6E5212514F514E43513F513800326
:100926007521FFE521B4FF0A78B276FF75DCCF02A8
:1009360009E6E521D3944050058521DD800375DD68
:100946000075DCC00209E678B2E624FB604224E5C5
:100956006004241A704578B1E6FFC3944040047FD2
:100966004080008F217E0078007C007D01AB12AABA
:1009760013A914120AEBC378B1E69521F6E52125F1
:1009860014F514E43513F5138521DD63DC4080503E
:10099600E5E3548078B146F5E3800375DD0075DC48
:1009A60002803D85DB2178B2E66420703030DE2D92
:1009B600AFDBFE087C00FD7B017A007900120AEBB2
:1009C60078B4E6B4A20B08E6B45D0608E6644F60A8
:1009D600097B007A0079B312167275DD0063DC803C
:1009E600C2D930D81675DC0275D21075D41275E3EB
:1009F60000C2DAC2D978BA7600C2D830DA09C2DAC9
:0A0A0600E5DA30E205800375D8FF41
:0B0A1000D0D0D082D083D0F0D0E032F4
:10171E00E4F52A121DA37F057E00121D63121DD64D
:10172E00121AB1D2AFE4F5D3F5D578A8F678AEF6A5
:10173E0078A7F678A9F678BAF6C202F510F5115325
:10174E0092EF4393105392DF43932078A5E660FB0C
:10175E0012130F78BAE66401601B78A9E6FF78A72A
:10176E0066601278BA760175D7408FE653D6FC784C
:10177E00A9744026F6300209C291E4F510F51180E5
:10178E001B0511E51170020510E510B41002D2917F
:10179E00E510B4C007E4F510F511C291E5B930E3D8
:1017AE00AFE4F5E275D1807F0AFE121D63AA16A979
:0617BE0017120CCE809A08
:101D330053927F439380D2975392DF439320D2955C
:091D43005392BF5393BFC29422D6
:0F1DC700C2945392DF5393DF53927F53937F2243
:101A5D0075371EE4F538F539F53A7D37FF120EF975
:101A6D00E4F5377D377F08120EF9753712753A2375
:101A7D007D377F01120EF975370C7538EDE4F539A8
:101A8D00753AE07D377F05120EF9753707E4F538A5
:101A9D007539FA753A057D377F0D120EF97D377F51
:041AAD000E020EF91E
:061B03008B378A38893996
:101B0900E478C0F608F6AE071FEE603678C1E670D5
:101B190016AB370539E539AA387002053814F912B8
:101B29000B1118F608760878C0E6FE30E004D29565
:101B39008002C295C297EEC31378C0F60816D297F1
:021B490080C456
:011B4B002277
:0615BF008B198A1A891B3A
:1015C500EF543F78C8F670027640EF30E76278C88E
:1015D500E67003021671E478C6F678C9760878C90C
:1015E500E6FF602718E66023C297A295E43318F654
:1015F500D29718E6C313FEF608E6FDC43333335419
:10160500804E18F678C916181680D378C6E6FEA857
:1016150007088002C313D8FCFF78C6F6AB1C051E6D
:10162500E51EAA1D7002051D14F9EF120B57809EC9
:1016350078C8E66037AB19051BE51BAA1A700205C9
:101645001A14F9120B1178C6F678C9760878C9E626
:1016550060DE18E660DA78C6E6FF139295C297D287
:0C16650097EFC313F678C916181680E141
:011671002256
:100EF900E478C3F6D295C297D29778C1A607E6FEE1
:100F0900139295C297D29778C3EE26F6EFC313785A
:100F1900C1F6E6FE139295C297D29778C3EE26F6EC
:100F2900EF1313543F78C1F6E6FE139295C297D298
:100F39009778C3EE26F6EF131313541FFE78C1F604
:100F4900139295C297D29778C3EE26F6E613929537
:100F5900C297D297C295C297D297D295C297D29784
:100F6900D29578A2E678C5F678C5E66007C297D229
:100F7900971680F4C297A295E43378C1F6D297E622
:100F890018F6C297A295E43308F6D297E625E01839
:100F990046F6C297A295E43308F6D297E625E025EE
:100FA900E01846F664016003021097EF30E172E43D
:100FB90078C2F608F608F678C57608C297A295E4CD
:100FC9003378C1F6D297E6FE78C326F618E6C3133E
:100FD900FCF6EEC433333354804CF678C516E6700C
:100FE900DAED600B78C2E6FE78C4E62DF8A606783D
:100FF900C406E6B404C1C297A295E43378C1F6D217
:101009009779C3E76630E00318760878A2E678C5D1
:10101900F678C5E66007C297D2971680F4D2958014
:101029005778A2E678C5F678C5E66007C297D297E1
:101039001680F4D295E478C3F608F678C4E6FEC3C0
:101049009404502AED2EF8E678C2F678C576087829
:10105900C2E6FE139295C297D29708EE26F6EEC322
:101069001318F678C516E670E678C40680CD78C3FD
:10107900E6139295C297D297788AE678C5F6607793
:10108900C29578C5E66070C297D2971680F478C089
:10109900E6FE64026005EE640470487894E6601325
:1010A900EF5402600E78C57621C297D29778C5169B
:1010B900E670F678A2E678C5F678C5E66007C297C5
:1010C900D2971680F4D2957894E66015EF540270A1
:1010D90010C29578C57621C297D29778C516E67061
:1010E900F6801478A2E6242179C5F778C5E6600769
:0D10F900C297D2971680F4D29578C0E6FF1A
:0111060022C6
:101672008B228A238924E4F528F527F526F525907F
:101682000003120B2AF525900002120B2AF5269070
:101692000001120B2AF527120B11F528C2ACE4F552
:1016A20045F546F543F544F547C200C201439603AA
:1016B200439703C2CDC2CC438780E589540F4420AF
:1016C200F58943C9A0E47F08FEFDFCAB28AA27A93F
:1016D20026A825120B8BE42FFFEE3436FEED346E76
:1016E200FDEC3401FCE47B10FAF9F8120C16AB287D
:1016F200AA27A926A825120C16EFF404F58DD28E7E
:10170200759850AB22AA23A924900005120B2A70C7
:0C1712000553987F8003439880D2AC22DE
:101B4C008F22900040C3E543954514C39F402C75EC
:101B5C00A003A845E0F2A308DFFA884520000DA8F1
:101B6C0043E2A2D0929BF5990543D200C3E543957D
:101B7C004514C39440400453D2F322E5D254F344A9
:051B8C0008F5D2222241
:101DB5008F29784805A290008015A2E608A5DFFBCB
:021DC5002222D8
:101D8F00E547600FFF121DB58547D3E4F54753D2E2
:041D9F00FCD201224F
:030023000219F3CC
:1019F300C0E0C0F0C083C082C0D075D00830981D4D
:101A030074482547F8A6990547E547D39440400312
:101A1300754700C298200137121D8F803230992FED
:101A2300E54465467004E5436545601175830385A8
:101A33004382E0A2D0929BF59905438002C200C382
:101A4300E543954514C39440400353D2F3C299D060
:0A1A5300D0D082D083D0F0D0E03272
:0F1DD600C2C7D2C5D2C475C2F3C2C143C6202250
:081DEF0030C0FDC2C0AFC122EB
:081DF7008FC130C1FDC2C12201
:071DFF00CEEFCE121DF7220A
:0300000002185C87
:0C185C00787FE4F6D8FD7581C90218A35E
:100A1B00E709F608DFFA8046E709F208DFFA803EBD
:100A2B0088828C83E709F0A3DFFA8032E309F608AA
:100A3B00DFFA8078E309F208DFFA807088828C8312
:100A4B00E309F0A3DFFA806489828A83E0A3F608C6
:100A5B00DFFA805889828A83E0A3F208DFFA804CA0
:100A6B0080D280FA80C680D4806980F28033801077
:100A7B0080A680EA809A80A880DA80E280CA8033E0
:100A8B0089828A83ECFAE493A3C8C582C8CCC58358
:100A9B00CCF0A3C8C582C8CCC583CCDFE9DEE78028
:100AAB000D89828A83E493A3F608DFF9ECFAA9F0A7
:100ABB00EDFB2289828A83ECFAE0A3C8C582C8CCFD
:100ACB00C583CCF0A3C8C582C8CCC583CCDFEADE16
:100ADB00E880DB89828A83E493A3F208DFF980CC78
:100AEB0088F0EF60010E4E60C388F0ED2402B40471
:100AFB000050B9F582EB2402B4040050AF23234518
:060B0B008223900A6B73C7
:100B1100BB010689828A83E0225002E722BBFE02E2
:090B2100E32289828A83E4932215
:100B2A00BB010CE58229F582E5833AF583E0225080
:100B3A0006E92582F8E622BBFE06E92582F8E222CA
:0D0B4A00E58229F582E5833AF583E49322E4
:100B5700BB010689828A83F0225002F722BBFE017D
:020B6700F32277
:100B6900F8BB010DE58229F582E5833AF583E8F0C2
:100B7900225006E92582C8F622BBFE05E92582C86E
:020B8900F22256
:100B8B00E88FF0A4CC8BF0A42CFCE98EF0A42CFC09
:100B9B008AF0EDA42CFCEA8EF0A4CDA8F08BF0A487
:100BAB002DCC3825F0FDE98FF0A42CCD35F0FCEBE6
:100BBB008EF0A4FEA9F0EB8FF0A4CFC5F02ECD39AB
:0F0BCB00FEE43CFCEAA42DCE35F0FDE43CFC2218
:100BDA0075F008758200EF2FFFEE33FECD33CDCCD2
:100BEA0033CCC58233C5829BED9AEC99E582984055
:100BFA000CF582EE9BFEED9AFDEC99FC0FD5F0D632
:100C0A00E4CEFBE4CDFAE4CCF9A88222B800C1B95B
:100C1A000059BA002DEC8BF084CFCECDFCE5F0CB99
:100C2A00F97818EF2FFFEE33FEED33FDEC33FCEBD2
:100C3A0033FB10D703994004EB99FB0FD8E5E4F98D
:100C4A00FA227818EF2FFFEE33FEED33FDEC33FC7A
:100C5A00C933C910D7059BE99A4007EC9BFCE99A6E
:100C6A00F90FD8E0E4C9FAE4CCFB2275F010EF2FB3
:100C7A00FFEE33FEED33FDCC33CCC833C810D707B3
:100C8A009BEC9AE899400AED9BFDEC9AFCE899F8EE
:0E0C9A000FD5F0DAE4CDFBE4CCFAE4C8F92281
:100CA800D083D082F8E4937012740193700DA3A3DB
:100CB80093F8740193F5828883E4737402936860EF
:060CC800EFA3A3A380DFEF
:060CCE008A838982E473B1
:1018680002171EE493A3F8E493A34003F68001F261
:1018780008DFF48029E493A3F85407240CC8C33381
:10188800C4540F4420C8834004F456800146F6DF50
:10189800E4800B0102040810204080901D1AE47EA9
:1018A800019360BCA3FF543F30E509541FFEE49345
:1018B800A360010ECF54C025E060A840B8E493A30C
:1018C800FAE493A3F8E493A3C8C582C8CAC583CA37
:1018D800F0A3C8C582C8CAC583CADFE9DEE780BEEF
:011D320000B0
:00000001FF
